:020000020000FC
:10000000F1E05CE15AB95FE357B95FE054B954E0FD
:100010005BB95FE358B9DFD050E058B9DCD000E0FD
:1000200005B900E1E7D0502F58B9ACD07DD059B117
:100030005472543279F4DED059B154725432D9F337
:10004000CED0CDD050E158B95CD091E095B939D03F
:1000500011E00ED0E7CF00E208B994D09ED0BFD017
:10006000FACF00E308B98ED098D0B9D0B8D0F9CF84
:1000700022D0C31781F71917C9F013951CD0C417E4
:1000800051F7191799F0139516D0CA1721F71917B8
:1000900069F0139510D0CB17F1F6191739F01395B5
:1000A0000AD0CE17C1F6191709F008959395963026
:1000B000C1F211E0CBCF66D037D06FD0C030D9F3CA
:1000C00008958BD011E038B917D01917A1F0139506
:1000D00048B912D0191779F01395A8B90DD019178E
:1000E00051F01395B8B908D0191729F01395E8B94C
:1000F00003D0191701F008956CD050E158B969D0B8
:1001000008953F2F306169D075D04F2F406165D081
:1001100071D0AF2FA06161D06DD0BF2FB0615DD025
:10012000EF2FE0615AD00895C0E059B158725832AB
:1001300039F459B158725832E1F3C1E0C06120C0BE
:1001400059B15073503339F459B150735033E1F30E
:10015000C2E0C06115C059B15874583439F459B16E
:1001600058745834E1F3C4E0C0610AC059B1507505
:10017000503531F459B150755035E1F3C8E0C061E4
:100180002CD0089559B15C715BB9503119F0550FFD
:100190005BB902C054E05BB9089559B1547454344A
:1001A00031F459B154745434E1F319D032CF089575
:1001B0005F2F506158B913D012D01CD01BD01AD069
:1001C00019D018D017D016D050E158B908D007D0A0
:1001D000089560E505C060EA03C060E101C060E227
:1001E00072E38AEF00008A95E9F77A95D1F76A956C
:1001F000B9F70895FF0FF03109F00895F1E008957F
:00000001FF
